:020000000C28CA
:10000800FE00030EF2000408F3000A08F4009B2C1B
:100018000D28F601F701F8018313203084004830D9
:10002800C824A0308400E030C82483011B28212480
:100038000B17123084248B174424003083120313C7
:10004800CD00CE006A23D524003A03192C282D2888
:100058002728FE2383120313D9005908BC247830BB
:10006800831203135906031D3A283B283E28C5016D
:100078009F3084243A30831203135906031D452800
:1000880046289E296330450603194B284C289E298B
:10009800C701C501C001C101C401C601C301C20134
:1000A80027285908A72383120313C700E629C70E78
:1000B800F030C7055908A72383120313D300530848
:1000C800C7044708D3005308C207E6295908A723DD
:1000D80083120313D300D4015308C0005408C1008D
:1000E800E62904300310C00DC10DFF3E031D76281C
:1000F8005908A72383120313D300D4015308C0045B
:100108005408C1044008D3005308C207E629043044
:100118000310C00DC10DFF3E031D8C285908A723ED
:1001280083120313D300D4015308C0045408C10434
:10013800E62904300310C00DC10DFF3E031D9E28A3
:100148005908A72383120313D300D4015308C0040A
:100158005408C10486285908A72383120313D3001F
:100168005308C404E629C40EF030C4055908A7236F
:1001780083120313D3005308C4044408D30053085C
:10018800C207E6294608A03E84005908A72383131E
:100198008000E6294608A03E84008313800EF030D4
:1001A80080055908A72383120313D3004608A03EED
:1001B80084005308831380044608A03E8400000886
:1001C800D3005308C2070130D3005308C607E629F5
:1001D8005908A72383120313C300E629C30EF0307E
:1001E800C3055908A72383120313D3005308C30474
:1001F80043084207D300D401D40DFF305305D5007E
:1002080000305405D60055085604031D0C290D2945
:100218008E2973308424B330842483120313410855
:1002280066248312031340086624B9308424831299
:10023800031347086624D02483120313D701D80177
:10024800472957084007CD0058080318580A41079E
:10025800CE005708A03E840083130008CF00C422B4
:1002680083120313CE1F39293A294129A93084243E
:10027800633083120313C50054290130D7070318CC
:10028800D80A0030D8074708D300D40154085802C8
:10029800031D502953085702031C532954292529A3
:1002A800D701D80178295708A03E8400570840078D
:1002B800CD0058080318580A4107CE006A23831353
:1002C800000603196829692970298330842463305A
:1002D80083120313C5008529013083120313D7073E
:1002E8000318D80A0030D8074708D300D4015408A7
:1002F8005802031D812953085702031C84298529A4
:1003080057296330450603198A298B29C429923055
:100318008424E6295F308424831203134308662467
:100328008312031342086624D02463308312031314
:10033800C500E6294508003A03195528013A03196A
:100348005B28033A03196A28013A03197528073A02
:1003580003198B28013A03199D28033A0319AF287A
:10036800013A0319B7280F3A0319C628013A0319A5
:10037800CE28033A0319EC28013A0319F228E62992
:10038800E62947080319C929CA29CF290130D3000A
:100398005308C507D1290A30C50047084602031883
:1003A800D629D729DA290830C50027280A30C500F8
:1003B80027283B308424013083120313D3005308C9
:1003C800C5072728831203134508073A0319C529C7
:1003D8000E3A0319D1296A3A0319DD29DF290C28B5
:1004000002308A000408840A820700343034313410
:100410003234333434343534363437343834393490
:100420004134423443344434453446340034453452
:100430004534503452344F344D34203450347234B7
:100440006F346734723461346D346D3465347234B2
:1004500020346234793420344D3469346C3474344B
:100460006F346E3420342834413452344D344334A4
:100470006F3464346534723429340D340A340034F2
:100480000D340A3450347234653473347334203488
:10049000273478342734203474346F342034723461
:1004A0006534733474346134723474342034703489
:1004B00072346F3463346534733473342E342E34B1
:1004C0002E340D340A3400340D340A3448344534A3
:1004D0005834203443346834653463346B347334B3
:1004E00075346D3420344534523452343A34003447
:1004F0000D340A3443346834653463346B347334F4
:1005000075346D3420344F344B340D340A34003498
:100510005634453452344934463459342034453401
:10052000523452344F3452340D340A340034563479
:100530006534723469346634793420344F344B3442
:100540002E340D340A3400340D340A3452346534F8
:100550007334653474340D340A34003454346934DB
:100560006D3465346F34753474340D340A340034AA
:1005700041344434443452343A3400342034203446
:10058000423453343A340034831203134E08C90002
:100590004D08C8004F08CA001C238312031306121B
:1005A00000008312031385138612000083120313C5
:1005B00086168517000083120313061600008312A7
:1005C000031385130513000083120313061006148A
:1005D00005178517CF0DCF01CF0D8830D000133010
:1005E000D100122B8513051300008312031306108C
:1005F0000614051785172130F500F50BFD2A01308B
:1006000083120313D0020030031CD103D10250081F
:100610005104031D0C2B0D2B122BFF30CD00FF308E
:10062000CE001B2B050E01394F06031D182B192B6D
:10063000F22ACD01CE01080083120313CB01CC01B5
:1006400083120313CA1F252B262B282B0514292BB5
:100650000510851485100310CA0D0130CB0703184F
:10066000CC0A0030CC074C08803AFF0080307F0273
:10067000031D3C2B08304B02031C3F2B402B202B2F
:1006800083120313CB01CC0183120313C91F492B1F
:100690004A2B4C2B05144D2B051085148510013069
:1006A0000310C80DC90DFF3E031D502B0130CB07B1
:1006B0000318CC0A0030CC074C08803AFF00803089
:1006C0007F02031D652B10304B02031C682B692B26
:1006D000442B080083120313CF018030D0004E0852
:1006E000C9004D08C800CA011C23831203138513D7
:1006F000051300008312031306100614051785174F
:10070000D101D20183120313051E872B882B8C2B5A
:100710005008F5007508CF040310D00C861586111B
:100720000130D1070318D20A0030D2075208803AAC
:10073000FF0080307F02031D9F2B08305102031CF5
:10074000A22BA32B822B831203134F080800F50062
:1007500030307502031CAD2BAE2BB72B3A3075022F
:100760000318B32BB42BB72B7508D03ED62B6130B2
:100770007502031CBC2BBD2BC62B673075020318FA
:10078000C22BC32BC62B7508A93ED62B4130750250
:10079000031CCB2BCC2BD52B473075020318D12B48
:1007A000D22BD52B7508C93ED62B0030080020303F
:1007B0007606031DDC2BDD2BDF2BAD24FD2B183043
:1007C0007606031DE42BE52BE82B83120313851516
:1007D0000130F1007108F6077808203E8400AD244E
:1007E000831380000130F1007108F807203078068B
:1007F000031DFB2BFC2BFD2BF80108007608031DC5
:10080000022C032C082C8312031385110030202C9A
:100810008B130130F6027708203E84008313000812
:1008200083120313C8000130F5007508F7078B1712
:1008300020307706031D1D2C1E2C1F2CF7014808A5
:1008400008008312031385118316031385118B137C
:10085000F801F701F60183120313981783160313A7
:1008600086140611243098009030831203139800E8
:100870000C30831603139900831203131A0883168E
:1008800003138C168B1708008312031385100510B1
:10089000831603138510051083120313061683169F
:1008A0000313061283120313851705178616831682
:1008B000031385130513861283120313861106147E
:1008C00083160313861106100516080083120313FE
:1008D000CA004A08C80004300310C80CFF3E031DBC
:1008E0006C2C4808C9000F30C8004808CA054908E0
:1008F000013E84000022BC24831203134A08013EF7
:1009000084000022BC24080083120313C900922C27
:10091000490884000022BC24013083120313C8005C
:100920004808C907490884000022003A031D992C91
:100930009A2C882C08000B08831203130C088C1EB9
:10094000A22CA32CA42CD72374088A00730884003B
:10095000720E8300FE0E7E0E090083120313981C94
:10096000B22CB32CB82C18121A08F0001816BA2C96
:100970001A08F00070080800F500750883120313C8
:10098000990083160313981CC62CC72CC12C080091
:1009900064008001840A0406031900340406C92C8B
:0E09A0000D30BC240A30BC2408007608080084
:02400E00503F21
:00000001FF
