:020000000C28CA
:10000800FE00030EF2000408F3000A08F400A52D10
:100018000D28F601F701F8018313203084004830D9
:10002800D225A0308400E030D22583011B282B255F
:100038000B1712308E258B174E25003083120313B1
:10004800CD00CE007424DF25003A03192C282D2872
:100058002728082583120313DA0078305A06031D6F
:10006800362837283A28C501A9308E253F30831213
:1000780003135A06031D412842284A2863304506BF
:100088000319472848284A289F308E253A3083127A
:1000980003135A06031D5128522861286330450668
:1000A8000319572858286128C701C501C001C10193
:1000B800C401C601C301C20127283C305A06031DEA
:1000C800662867285E2A6330450603196C286D2860
:1000D8005E2AC7011430C500C001C101C401C601B0
:1000E800C301C20127285A08B12483120313C70089
:1000F800B82AC70EF030C7055A08B1248312031373
:10010800D3005308C7044708D3005308C207B82AC6
:100118005A08B12483120313D300D4015308C00032
:100128005408C100B82A04300310C00DC10DFF3EA9
:10013800031D98285A08B12483120313D300D4014D
:100148005308C0045408C1044008D3005308C20728
:10015800B82A04300310C00DC10DFF3E031DAE28A0
:100168005A08B12483120313D300D4015308C004DE
:100178005408C104B82A04300310C00DC10DFF3E55
:10018800031DC0285A08B12483120313D300D401D5
:100198005308C0045408C104A8285A08B12483127B
:1001A8000313D3005308C404B82AC40EF030C4059E
:1001B8005A08B12483120313D3005308C404440813
:1001C800D3005308C207B82A4608A03E84005A083C
:1001D800B12483138000B82A4608A03E8400831304
:1001E800800EF03080055A08B12483120313D3001F
:1001F8004608A03E84005308831380044608A03EA6
:1002080084000008D3005308C2070130D300530804
:10021800C607B82A5A08B12483120313C300B82AA0
:10022800C30EF030C3055A08B12483120313D30058
:100238005308C30443084207D300D401D40DFF3048
:100248005305D50000305405D60055085604031D43
:100258002E292F29B02973308E25BD308E25831283
:100268000313410870258312031340087025C33017
:100278008E258312031347087025DA25831203138A
:10028800D801D901692958084007CD005908031831
:10029800590A4107CE005808A03E8400831300087D
:1002A800CF00CE2383120313CE1F5B295C29632959
:1002B800B3308E25633083120313C50076290130CD
:1002C800D8070318D90A0030D9074708D300D40142
:1002D80054085902031D722953085802031C752932
:1002E80076294729D801D9019A295808A03E8400BF
:1002F80058084007CD0059080318590A4107CE008D
:1003080074248313000603198A298B2992298330C0
:100318008E25633083120313C500A7290130831289
:100328000313D8070318D90A0030D9074708D300A0
:10033800D40154085902031DA32953085802031C69
:10034800A629A7297929633045060319AC29AD29BF
:10035800962A92308E25B82A5F308E258312031391
:10036800430870258312031342087025DA25633089
:1003780083120313C500B82A5A08B1248312031341
:10038800D300D4015308C0005408C100B82A04306F
:100398000310C00DC10DFF3E031DCC295A08B1241E
:1003A80083120313D300D4015308C0045408C104B2
:1003B8004008C300B82A04300310C00DC10DFF3E29
:1003C800031DE0295A08B12483120313D300D40172
:1003D8005308C0045408C104B82A04300310C00DDF
:1003E800C10DFF3E031DF2295A08B12483120313DD
:1003F800D300D4015308C0045408C1044008D300F2
:100408005308C307B82A5A08B12483120313C70034
:10041800B82AC70EF030C7055A08B124831203134F
:10042800D3005308C7044708D3005308C3073A301A
:10043800C625831203134708702583120313410846
:10044800702583120313400870253030C6253030DC
:10045800C62583120313D801D9014C2A580840072E
:10046800CD0059080318590A4107CE007424831295
:100478000313D70057087025831203135708D300B6
:100488005308C3070130D8070318D90A0030D90721
:100498004708D300D40154085902031D552A5308AC
:1004A8005802031C582A592A322A4303FF3A702556
:1004B800DA25B82A4508003A03197728013A0319BA
:1004C8007D28033A03198C28013A03199728073A1B
:1004D8000319AD28013A0319BF28033A0319D12893
:1004E800013A0319D9280F3A0319E828013A0319E0
:1004F800F028033A03190E29013A031914291F3A5F
:100508000319C029013A0319CB29033A0319DF2932
:10051800013A0319F1290F3A0319072A013A031975
:100528000D2AB82AB82A470803199B2A9C2AA12A07
:100538000130D3005308C507A32A0A30C50047086D
:1005480046020318A82AA92AAC2A0830C500272879
:100558000A30C50027283B308E250130831203134B
:10056800D3005308C5072728831203134508073A01
:100578000319972A0E3A0319A32A6A3A0319AF2ACC
:04058800B12A0C2860
:1006000003308A000408840A82070034303431340D
:10061000323433343434353436343734383439348E
:100620004134423443344434453446340034453450
:100630004534503452344F344D34203450347234B5
:100640006F346734723461346D346D3465347234B0
:1006500020346234793420344D3469346C34743449
:100660006F346E3420342834413452344D344334A2
:100670006F3464346534723429340D340A340034F0
:100680000D340A3450347234653473347334203486
:10069000273478342734203474346F34203472345F
:1006A0006534733474346134723474342034703487
:1006B00072346F3463346534733473342E342E34AF
:1006C0002E340D340A3400340D340A3448344534A1
:1006D0005834203443346834653463346B347334B1
:1006E00075346D3420344534523452343A34003445
:1006F0000D340A3443346834653463346B347334F2
:1007000075346D3420344F344B340D340A34003496
:1007100056344534523449344634593420344534FF
:10072000523452344F3452340D340A340034563477
:100730006534723469346634793420344F344B3440
:100740002E340D340A3400340D340A345634313426
:100750002E34303430340D340A3400340D340A343D
:10076000523465347334653474340D340A340034CF
:10077000543469346D3465346F34753474340D34E5
:100780000A34003441344434443452343A3400346A
:1007900020342034423453343A3400348312031367
:1007A0004E08C9004D08C8004F08CA00262483120D
:1007B0000313061200008312031385138612000030
:1007C000831203138616851700008312031306167F
:1007D0000000831203138513051300008312031313
:1007E0000610061405178517CF0DCF01CF0D8830E1
:1007F000D0001330D1001C2C851305130000831288
:10080000031306100614051785172130F500F50BA4
:10081000072C013083120313D0020030031CD103D4
:10082000D10250085104031D162C172C1C2CFF302C
:10083000CD00FF30CE00252C050E01394F06031DDB
:10084000222C232CFC2BCD01CE0108008312031394
:10085000CB01CC0183120313CA1F2F2C302C322C56
:100860000514332C0510851485100310CA0D0130B2
:10087000CB070318CC0A0030CC074C08803AFF00A5
:1008800080307F02031D462C08304B02031C492C8C
:100890004A2C2A2C83120313CB01CC01831203139D
:1008A000C91F532C542C562C0514572C0510851495
:1008B000851001300310C80DC90DFF3E031D5A2CD1
:1008C0000130CB070318CC0A0030CC074C08803A23
:1008D000FF0080307F02031D6F2C10304B02031C81
:1008E000722C732C4E2C080083120313CF0180301E
:1008F000D0004E08C9004D08C800CA012624831242
:100900000313851305130000831203130610061446
:1009100005178517D101D20183120313051E912CEF
:10092000922C962C5008F5007508CF040310D00CBB
:10093000861586110130D1070318D20A0030D2077C
:100940005208803AFF0080307F02031DA92C083036
:100950005102031CAC2CAD2C8C2C831203134F08BA
:100960000800F50030307502031CB72CB82CC12CE0
:100970003A3075020318BD2CBE2CC12C7508D03E30
:10098000E02C61307502031CC62CC72CD02C6730BC
:1009900075020318CC2CCD2CD02C7508A93EE02C68
:1009A00041307502031CD52CD62CDF2C4730750244
:1009B0000318DB2CDC2CDF2C7508C93EE02C003042
:1009C000080020307606031DE62CE72CE92CB7251D
:1009D000072D18307606031DEE2CEF2CF22C831217
:1009E000031385150130F1007108F6077808203EE1
:1009F0008400B725831380000130F1007108F807E7
:100A000020307806031D052D062D072DF80108005E
:100A10007608031D0C2D0D2D122D83120313851145
:100A200000302A2D8B130130F6027708203E840017
:100A30008313000883120313C8000130F500750802
:100A4000F7078B1720307706031D272D282D292D1A
:100A5000F701480808008312031385118316031356
:100A600085118B13F801F701F60183120313981710
:100A700083160313861406112430980090308312D5
:100A8000031398000C308316031399008312031389
:100A90001A08831603138C168B170800831203138E
:100AA0008510051083160313851005108312031398
:100AB00006168316031306128312031385170517F0
:100AC00086168316031385130513861283120313E8
:100AD00086110614831603138611061005160800E6
:100AE00083120313CA004A08C80004300310C80C5C
:100AF000FF3E031D762D4808C9000F30C800480886
:100B0000CA054908013E84000023C6258312031349
:100B10004A08013E84000023C625080083120313FF
:100B2000C9009C2D490884000023C625013083128A
:100B30000313C8004808C907490884000023003A85
:100B4000031DA32DA42D922D08000B08831203135F
:100B50000C088C1EAC2DAD2DAE2DE12474088A003E
:100B600073088400720E8300FE0E7E0E090083124D
:100B70000313981CBC2DBD2DC22D18121A08F000AD
:100B80001816C42D1A08F00070080800F500750842
:100B900083120313990083160313981CD02DD12DB3
:100BA000CB2D080064008001840A04060319003478
:100BB0000406D32D0D30C6250A30C6250800760858
:020BC00008002B
:02400E00503F21
:00000001FF
