:020000000C28CA
:10000800FE00030EF1000408F2000A08F300892D2F
:100018000D28F701F801F9018313203084004830D6
:10002800C625A0308400E030C62583011B28E624BD
:100038000B171230F5009B258B172C2500308312E7
:100048000313CA00CB007B24D325003A03192D28BB
:100058002E2828284E2583120313D70078305706F8
:10006800031D372838283C28C501A930F5009B25F1
:100078003F30831203135706031D432844284D2895
:1000880063304506031949284A284D289F30F50052
:100098009B253A30831203135706031D542855280D
:1000A80064286330450603195A285B286428C70169
:1000B800C501C001C101C401C601C301C20128288C
:1000C8003C305706031D69286A284C2A63304506C8
:1000D80003196F2870284C2AC7011430C500C001C5
:1000E800C101C401C601C301C20128285708B624AA
:1000F80083120313C700A32AC70EF030C705570899
:10010800B62483120313C7044708C207A32A570853
:10011800B62483120313D000D1015008C00051083F
:10012800C100A32A04300310C00DC10DFF3E031DFA
:1001380097285708B62483120313D000D10150081A
:10014800C0045108C1044008C207A32A04300310A0
:10015800C00DC10DFF3E031DAB285708B6248312FE
:100168000313D000D1015008C0045108C104A32AC8
:1001780004300310C00DC10DFF3E031DBD285708F4
:10018800B62483120313D000D1015008C0045108CB
:10019800C104A7285708B62483120313C404A32A4A
:1001A800C40EF030C4055708B62483120313C404E0
:1001B8004408C207A32A4608A03E84005708B6246C
:1001C80083138000A32A4608A03E84008313800E70
:1001D800F03080054608A03E84005708B6248313F3
:1001E8008004831203134608A03E84000008C20757
:1001F8000130C607A32A5708B62483120313C30085
:10020800A32AC30EF030C3055708B624831203137C
:10021800C30443084207D000D101D10DFF30500577
:10022800D20000305105D30052085304031D1D2984
:100238001E29A5297330F5009B25BD30F5009B25A7
:100248008312031341086D258312031340086D259B
:10025800C330F5009B258312031347086D25CE256F
:1002680083120313D501D6015C2955084007CA003B
:1002780056080318560A4107CB005508A03E8400CB
:1002880083130008CC00CE2383120313CB1F4D2900
:100298004E295629B330F5009B256330831203138A
:1002A800C50069290130D5070318D60A0030D607DA
:1002B8004708D000D10151085602031D652950088E
:1002C8005502031C682969293929D501D6018E29C7
:1002D8005508A03E840055084007CA005608031870
:1002E800560A4107CB007B248313000603197D2996
:1002F8007E2986298330F5009B25633083120313FA
:10030800C5009B29013083120313D5070318D60AA9
:100318000030D6074708D000D10151085602031D06
:10032800972950085502031C9A299B296C29633088
:1003380045060319A029A129842A9230F5009B2596
:10034800A32A5F30F5009B258312031343086D250C
:100358008312031342086D25CE25633083120313DD
:10036800C500A32A5708B62483120313D000D1016D
:100378005008C0005108C100A32A04300310C00D62
:10038800C10DFF3E031DC2295708B624831203136B
:10039800D000D1015008C0045108C1044008C3006E
:1003A800A32A04300310C00DC10DFF3E031DD6293A
:1003B8005708B62483120313D000D1015008C00493
:1003C8005108C104A32A04300310C00DC10DFF3E1B
:1003D800031DE8295708B62483120313D000D1015E
:1003E8005008C0045108C1044008C307A32A57088D
:1003F800B62483120313C700A32AC70EF030C7051B
:100408005708B62483120313C7044708C3073A30B2
:10041800BA258312031347086D2583120313410875
:100428006D258312031340086D253030BA2530300E
:10043800BA2583120313D501D6013A2A5508400775
:10044800CA0056080318560A4107CB007B248312BA
:100458000313D40054086D25831203135408C307EB
:100468000130D5070318D60A0030D6074708D00050
:10047800D10151085602031D432A50085502031C96
:10048800462A472A222A4303FF3A6D25CE25A32A66
:100498004508003A03197A28013A03198028033AD3
:1004A80003198B28013A03199628073A0319AA2831
:1004B800013A0319BC28033A0319CE28013A031953
:1004C800D4280F3A0319DF28013A0319E728033A19
:1004D8000319FF28013A031905291F3A0319B629F8
:1004E800013A0319C129033A0319D529013A031915
:1004F800E7290F3A0319FB29013A0319012AA32A0C
:10050800A32A47080319892A8A2A8D2A0130C50790
:100518008F2A0A30C500470846020318942A952AEC
:10052800982A0830C50028280A30C50028283B30FA
:10053800F5009B25013083120313C5072828831271
:1005480003134508073A0319852A0E3A03198F2A17
:0A0558006A3A03199B2A9E2A0C2818
:1006000003308A000408840A82070034303431340D
:10061000323433343434353436343734383439348E
:100620004134423443344434453446340034453450
:100630004534503452344F344D34203450347234B5
:100640006F346734723461346D346D3465347234B0
:1006500020346234793420344D3469346C34743449
:100660006F346E3420342834413452344D344334A2
:100670006F3464346534723429340D340A340034F0
:100680000D340A3450347234653473347334203486
:10069000273478342734203474346F34203472345F
:1006A0006534733474346134723474342034703487
:1006B00072346F3463346534733473342E342E34AF
:1006C0002E340D340A3400340D340A3448344534A1
:1006D0005834203443346834653463346B347334B1
:1006E00075346D3420344534523452343A34003445
:1006F0000D340A3443346834653463346B347334F2
:1007000075346D3420344F344B340D340A34003496
:1007100056344534523449344634593420344534FF
:10072000523452344F3452340D340A340034563477
:100730006534723469346634793420344F344B3440
:100740002E340D340A3400340D340A345634313426
:100750002E34303430340D340A3400340D340A343D
:10076000523465347334653474340D340A340034CF
:10077000543469346D3465346F34753474340D34E5
:100780000A34003441344434443452343A3400346A
:1007900020342034423453343A3400348312031367
:1007A0004B08F5004A08F4004C08F600292483128F
:1007B0000313061200008312031385138612000030
:1007C000831203138616851700008312031306167F
:1007D0000000831203138513051300008312031313
:1007E0000610061405178517CC0DCC01CC0D8830EA
:1007F000CE001330CF001F2C851305130000831289
:1008000003130610061405178517203083120313EF
:10081000CD00CD0B092C0C2C013083120313CE021A
:100820000030031CCF03CF024E084F04031D192CC8
:100830001A2C1F2CFF30CA00FF30CB00282C050ECD
:1008400001394C06031D252C262CFC2BCA01CB019B
:10085000080083120313C801C901F61F302C312C84
:10086000352C831203130514382C8312031305103F
:10087000851485100310F60D0130C8070318C90A46
:100880000030C9074908803AFF0080307F02031D0D
:100890004B2C08304802031C4E2C4F2C2D2C83125D
:1008A0000313C801C901F51F562C572C5B2C83126A
:1008B000031305145E2C8312031305108514851091
:1008C00001300310F40DF50DFF3E031D612C0130C6
:1008D000C8070318C90A0030C9074908803AFF0051
:1008E00080307F02031D762C10304802031C792CC7
:1008F0007A2C532C080083120313CC018030CD00D6
:100900004B08F5004A08F400F6012924831203136A
:100910008513051300008312031306100614051730
:100920008517CE01CF0183120313051E982C992C35
:100930009B2C4D08CC040310CD0C8615861101307C
:10094000CE070318CF0A0030CF074F08803AFF00C8
:1009500080307F02031DAE2C08304E02031CB12CE8
:10096000B22C932C831203134C080800F40030308F
:100970007402031CBC2CBD2CC62C3A307402031824
:10098000C22CC32CC62C7408D03EE52C61307402F6
:10099000031CCB2CCC2CD52C673074020318D12C23
:1009A000D22CD52C7408A93EE52C41307402031CCE
:1009B000DA2CDB2CE42C473074020318E02CE12CF9
:1009C000E42C7408C93EE52C0030080083120313A0
:1009D00085118316031385118B13F901F801F701B3
:1009E00083120313981783160313861406112430F9
:1009F000980090308312031398000C308316031371
:100A00009900831203131A08831603138C168B178D
:100A1000080020307706031D0E2D0F2D112DAB255C
:100A20002B2D18307706031D162D172D1A2D831226
:100A3000031385150130F7077908203E8400AB25A4
:100A4000831380000130F90720307906031D292D1A
:100A50002A2D2B2DF9010800831203138510051090
:100A600083160313851005108312031306168316CD
:100A700003130612831203138517051786168316B0
:100A800003138513051386128312031386110614AC
:100A90008316031386110610051608007708031D38
:100AA000522D532D582D83120313851100306C2DB8
:100AB0008B130130F7027808203E8400831300086E
:100AC000F4000130F8078B1720307806031D692DDC
:100AD0006A2D6B2DF8017408080083120313C900F6
:100AE0004908F50004300310F50CFF3E031D732D7B
:100AF0007508C8000F30C9054808013E840000236E
:100B0000BA25831203134908013E84000023BA2545
:100B100008000B08831203130C088C1E902D912DD6
:100B2000922D092573088A0072088400710E8300D3
:100B3000FE0E7E0E0900A22D750884000023BA2542
:100B40000130F507750884000023003A031DA92D24
:100B5000AA2D9C2D080083120313981CB02DB12DD3
:100B6000B62D18121A08F0001816B82D1A08F00041
:100B700070080800F40074088312031399008316A8
:100B80000313981CC42DC52DBF2D080064008001DF
:100B9000840A0406031900340406C72D0D30BA2553
:0A0BA0000A30BA25080077080800A3
:02400E00503F21
:00000001FF
